:100000000C9435000C945D000C945D000C945D0024
:100010000C945D000C945D000C945D000C945D00EC
:100020000C945D000C945D000C945D000C940E0328
:100030000C945D000C945D000C945D000C945D00CC
:100040000C94C4020C945D000C9492020C946C020B
:100050000C945D000C945D000C945D000C945D00AC
:100060000C945D000C945D00F90511241FBECFEFC8
:10007000D8E0DEBFCDBF23E0A4E9B1E001C01D920E
:10008000AA34B207E1F711E0A0E0B1E0E6EDFCE050
:1000900002C005900D92A439B107D9F710E0C5E36D
:1000A000D0E004C02197FE010E945E06C433D10750
:1000B000C9F70E94E0030C9469060C940000CF92EB
:1000C000DF92EF92FF920F931F93CF93DF936C0118
:1000D0007A018B01C0E0D0E0CE15DF0589F0D801B0
:1000E0006D918D01D601ED91FC910190F081E02D93
:1000F000C6010995892B11F47E0102C02196ECCF2F
:10010000C701DF91CF911F910F91FF90EF90DF908A
:10011000CF900895089580E090E00895FC01538DFC
:10012000448D252F30E0842F90E0821B930B5417D1
:1001300010F0CF96089501970895FC01918D828D5E
:10014000981761F0828DDF01A80FB11D5D968C912B
:10015000928D9F5F9F73928F90E008958FEF9FEF36
:100160000895FC01918D828D981731F0828DE80FF2
:10017000F11D858D90E008958FEF9FEF0895FC01AC
:10018000918D228D892F90E0805C9F4F821B910979
:100190008F73992708958DEA92E00E94BF0021E0B5
:1001A000892B09F420E0822F0895FC01848DDF0162
:1001B000A80FB11DA35ABF4F2C91848D90E00196DA
:1001C0008F739927848FA689B7892C93A089B189C9
:1001D0008C9180648C93938D848D981306C00288D3
:1001E000F389E02D80818F7D80830895EF92FF92C7
:1001F0000F931F93CF93DF93EC0181E0888F9B8D4A
:100200008C8D981305C0E889F989808185FD24C00B
:10021000F62E0B8D10E00F5F1F4F0F731127E02E8E
:100220008C8DE8120CC00FB607FCFACFE889F9896B
:10023000808185FFF5CFCE010E94D500F1CF8B8D57
:10024000FE01E80FF11DE35AFF4FF0820B8FEA89A0
:10025000FB898081806207C0EE89FF896083E8891D
:10026000F98980818064808381E090E0DF91CF9183
:100270001F910F91FF90EF900895682F8DEA92E003
:100280000C94F600CF93DF93EC01888D8823C9F09E
:10029000EA89FB89808185FD05C0A889B9898C918F
:1002A00086FD0FC00FB607FCF5CF808185FFF2CF2A
:1002B000A889B9898C9185FFEDCFCE010E94D50028
:1002C000E7CFDF91CF91089580E090E0892B29F06E
:1002D0000E94CB0081110C94000008953FB7F89460
:1002E00080919D0190919E01A0919F01B091A001EC
:1002F00026B5A89B05C02F3F19F00196A11DB11D81
:100300003FBFBA2FA92F982F8827820F911DA11DBB
:10031000B11DBC01CD0143E0660F771F881F991FF7
:100320004A95D1F708958F929F92AF92BF92CF9244
:10033000DF92EF92FF9280910101883080F490E08B
:10034000FC01EE0FFF1F8E0F9F1FFC01E25FFE4FAF
:10035000C080D180E2800E2C000CFF0806C040E86F
:10036000C42E45E2D42EE12CF12C60E874E88EE135
:1003700090E0A70196010E943C06DA01C9010197AD
:10038000A109B109B695A795979587959C01E0912C
:10039000BD02F091BE0282E08083211580E1380722
:1003A000B8F0E091BD02F091BE02108260E472E408
:1003B0008FE090E0A70196010E943C06DA01C90196
:1003C0000197A109B109B695A795979587959C01C5
:1003D000E091B902F091BA023083E091BB02F09152
:1003E000BC0220831092C502E091C102F091C202CA
:1003F00086E08083E091BF02F091C002808180613D
:100400008083E091BF02F091C00280818860808388
:10041000E091BF02F091C002808180688083E0910A
:10042000BF02F091C00280818F7D808388EE93E0CF
:10043000A0E0B0E08093B1029093B202A093B30227
:10044000B093B4020E946E014B015C018AE0C82E99
:10045000D12CE12CF12C0E946E01DC01CB0188191A
:100460009909AA09BB09883E9340A105B10558F036
:1004700021E0C21AD108E108F10888EE880E83E075
:10048000981EA11CB11CC114D104E104F10419F798
:10049000FF90EF90DF90CF90BF90AF909F908F90A4
:1004A00008958CE0E2E0F1E0DF011D928A95E9F722
:1004B00008950E9464066AE280E090E00E942E06A1
:1004C0006091000181E090E00E942E0660910101A0
:1004D00082E090E00C942E061F920F920FB60F92BE
:1004E00011242F933F934F935F936F937F938F9339
:1004F0009F93AF93BF93EF93FF938DEA92E00E9497
:10050000D500FF91EF91BF91AF919F918F917F9116
:100510006F915F914F913F912F910F900FBE0F9070
:100520001F9018951F920F920FB60F9211242F93C0
:100530008F939F93EF93FF93E091BD02F091BE02E2
:100540008081E091C302F091C40282FD12C09081CB
:100550008091C6028F5F8F732091C702821751F07E
:10056000E091C602F0E0E355FD4F958F8093C602FF
:1005700001C08081FF91EF919F918F912F910F90FA
:100580000FBE0F901F9018951F920F920FB60F92EB
:1005900011242F933F938F939F93AF93BF93809199
:1005A000990190919A01A0919B01B0919C01309189
:1005B000980126E0230F2D3720F40296A11DB11DCE
:1005C00005C029E8230F0396A11DB11D20939801B2
:1005D0008093990190939A01A0939B01B0939C0101
:1005E00080919D0190919E01A0919F01B091A001E9
:1005F0000196A11DB11D80939D0190939E01A09332
:100600009F01B093A001BF91AF919F918F913F91B6
:100610002F910F900FBE0F901F9018951F920F9261
:100620000FB60F9211248F939F93EF93FF93289807
:1006300029982A982B982C982D982E982F98409886
:10064000419842984398449845985A985B9890915D
:10065000970180910001981708F093C0809196014E
:1006600080FF02C05C9A01C05C9881FF02C05D9A65
:1006700001C05D9882FF02C05E9A01C05E98E09161
:100680009601F0E0EE0FFF1FEE5FFE4F808180933A
:100690009501E0919601F0E0EE0FFF1FEE5FFE4F37
:1006A00091819093940180FF02C0289A01C02898FC
:1006B0008091950181FF02C0299A01C029988091FB
:1006C000950182FF02C02A9A01C02A988091950163
:1006D00083FF02C02B9A01C02B988091950184FF63
:1006E00002C02C9A01C02C988091950185FF02C010
:1006F0002D9A01C02D988091950186FF02C02E9AF7
:1007000001C02E988091950187FF02C02F9A01C0E9
:100710002F988091940180FF02C0409A01C04098B8
:100720008091940181FF02C0419A01C0419880915B
:10073000940182FF02C0429A01C0429880919401C4
:1007400083FF02C0439A01C043988091940184FFC3
:1007500002C0449A01C044988091940185FF02C070
:10076000459A01C045988091940186FF02C05A9A2B
:1007700001C05A988091940187FF02C05B9A01C022
:100780005B98809196018F5F80939601809196018E
:10079000863068F010929601809197018F5F809368
:1007A0009701809197018A3010F010929701FF9184
:1007B000EF919F918F910F900FBE0F901F90189502
:1007C000789484B5826084BD84B5816084BD85B52C
:1007D000826085BD85B5816085BD80916E00816038
:1007E00080936E00109281008091810082608093DE
:1007F00081008091810081608093810080918000E0
:100800008160809380008091B10084608093B1000A
:100810008091B00081608093B00080917A00846004
:1008200080937A0080917A00826080937A00809130
:100830007A008E7F80937A0080917A00806880931E
:100840007A001092C100209A219A229A239A249A1F
:10085000259A269A279A389A399A3A9A3B9A3C9A34
:100860003D9A529A539A549A559A569AF8941092DD
:10087000800010928100109285001092840085E320
:1008800095E0909389008093880080918100886032
:1008900080938100809181008160809381008091AC
:1008A0006F00826080936F00789480E090E00E94F7
:1008B00026068A3211F00E945B0281E090E00E94DD
:1008C00026068093000182E090E00E942606809335
:1008D00001010E94930103E010E0E2E0EE2EF12C12
:1008E00070E5D72EDBE78DE6282E94E5392E28E734
:1008F000A22E35E0B32E4AE0C42E8DEA92E00E948B
:10090000BF00892B09F472C18DEA92E00E949D001C
:10091000C82F8093AC028090AA029090AB02811401
:10092000910489F51092A9021092A802813159F020
:100930001CF48031D9F004C08231C1F08331E9F078
:100940001092A70220C08093A7028DEA92E00E9435
:10095000BF00892BD1F38DEA92E00E949D00992778
:1009600002969093A9028093A8020DC0C093A7029B
:100970001093A9020093A80206C08093A702F092E8
:10098000A902E092A802F401E955FE4FC083C40118
:1009900001969093AB028093AA023091A702311185
:1009A0007BC0CA3019F0CD3009F006C19092AB027D
:1009B0008092AA0210820E9451024091AA02509194
:1009C000AB028090AC029090A10180E090E0E2E068
:1009D000F1E020E030E02C303105A1F43093A401A7
:1009E0002093A3019092A1019093A6018093A50169
:1009F0008092AC026091A5017091A6016417750701
:100A000094F142C0841795074CF7DC01A955BE4FFD
:100A10008C906EE2861204C06081606860831EC0A4
:100A200060EE962E980CAAE5A91530F0A92DB0E03D
:100A3000A85CBE4F7C9001C0712C70828F3F9105E5
:100A40006CF4BC016F5F7F4FDB01A955BE4FAC91C9
:100A5000AE3221F4872D80688083CB0101962F5F11
:100A60003F4F3196B8CF69557E4F6115710561F0E2
:100A7000FB0101900020E9F73197AF01461B570BAE
:100A80008DEA92E00E945F008AE090E00E943D01C2
:100A9000B1E0B093A20190C04091A8025091A90288
:100AA0008417950709F088C03131B1F118F430315D
:100AB000D1F07FC0323109F472C0333109F079C00E
:100AC0000E945102D0920601D093070120920801A2
:100AD000D09309013092A101A0920A01B0920101C4
:100AE000C092000164C08091A8018B3020F4811174
:100AF00003C081E001C08AE0809300010E945B0294
:100B000080E190E00E943D018091A801082E000C38
:100B1000990B0E943D013EC00E9451021092A60115
:100B20001092A5018090A5019090A6014090A80286
:100B30005090A902C2010297881699065CF5F4014B
:100B4000E955FE4F3F01FCE08F16910444F4D301B8
:100B500011968C91F401EE5FFE4F808313C0BCE0D0
:100B60008B16910441F481E190E00E943D01C201A5
:100B70000E970E943D01F3018181082E000C990B14
:100B80000E943D01FFEF8F1A9F0A9092A60180926A
:100B9000A501C8CF8AE090E00E943D010AC0809183
:100BA000A801883030F4809301010E9493010E94D3
:100BB0005B0221E02093A2018091A201882309F425
:100BC0009CCE1092AB021092AA021092A90210922F
:100BD000A8021092A20180E091E0E7EAF1E0DF01D3
:100BE0009C011D9221503040E1F77DCE0E946401AE
:100BF00077CEEDEAF2E01382128288EE93E0A0E075
:100C0000B0E084839583A683B7838AE291E09183E1
:100C1000808385EC90E09587848784EC90E09787CB
:100C2000868780EC90E0918B808B81EC90E0938BB9
:100C3000828B82EC90E0958B848B86EC90E0978B96
:100C4000868B118E128E138E148E0895F999FECF15
:100C500092BD81BDF89A992780B50895262FF999FC
:100C6000FECF1FBA92BD81BD20BD0FB6F894FA9A8F
:100C7000F99A0FBE01960895A1E21A2EAA1BBB1B7A
:100C8000FD010DC0AA1FBB1FEE1FFF1FA217B30758
:100C9000E407F50720F0A21BB30BE40BF50B661F6E
:100CA000771F881F991F1A9469F760957095809532
:100CB00090959B01AC01BD01CF010895EE0FFF1F80
:100CC0000590F491E02D099481E090E0F8940C9463
:060CD0006906F894FFCF55
:100CD6000A05FFFFFFFFFFFFFFFFFFFFFFFF6009A2
:100CE60000C01200802500403800004B000096002E
:100CF60000E100002C0100000000F6005F008E00FD
:100D06004201BF009D00B100000022000000000269
:100D1600390F0000004000003F065B4F666D7D07FF
:100D26007F6F00000000000000777F393F79713D3A
:100D360076061E763855543F7367776D313E727E60
:100D4600526E5B39000F0008205F7C585E7B716F26
:100D560074040E743055545C7367506D781C626A67
:040D660052665B0076
:00000001FF
